:02000004085F93
:10E0000000E05F08FCFF5F0800000600200005013B
:08E0100004017D150000000071
:10E018001348144908B5884205D0134A824202D0F1
:10E02800124B121A98471248124A0021124B121A20
:10E03800984712481249884205D0124A824202D0B3
:10E048000A4B121A984710481049884205D0104ABE
:10E05800824202D0054B121A9847014808BD00BFFA
:10E0680094AD071078FB5F080CAE07102D0D11104A
:10E078000CAE0710E8AF0710A10E111020E53F0203
:10E08800A8E05F0828E53F0228E53F02B0E05F0806
:0CE09800F0FF3F0219E05F0800000000EC
:08E0A8009CE05F0884FD3F02CB
:10E0B000034613F8012B002AFBD1181A01387047C8
:10E0C00070B501F0AFF90025054E064CA41BA4085D
:10E0D000AC4200D170BD56F8043B98470135F7E7D4
:10E0E000CCFF3F02F0FF3F0200F016B808B500F089
:10E0F00075F8BDE8084001F04DB900F031BD00F001
:10E100003DBD0078B0FA80F04009704701230370EC
:10E11000704700207047000013B501F0ABF84FF4D2
:10E12000165101F09BF80024B4234FF408722146E5
:10E13000CDE9004318484FF4166300F095FF01F055
:10E1400099F8164900F041FF22462146144800F094
:10E1500033F922460721124800F03AF9114B1048D2
:10E160002246196800F05BF90D4800F001F920B172
:10E1700001F080F80C4900F028FF282200210B480C
:10E1800001F025FB00220A4B1A605A609A60DA609F
:10E190001A6102B010BD00BF54AE071094FD3F02DB
:10E1A00064AE071098AD07109CFD3F022CAE07101F
:10E1B00010AE07100023DFED087A8B4205DAB0ECD1
:10E1C000017A013377EE877AF7E707EE101AB8EE97
:10E1D000C70A87EE800A70470000000038B501F0DA
:10E1E00049F8414900F0F1FE0021404800F00AF9E9
:10E1F000002839D000213D4800F0F6F8044601F02F
:10E2000039F83B4900F0E1FE01F034F8394900F0FB
:10E21000DCFE01F02FF8002C054623DA2D2100F05A
:10E22000C5FE61420A22284600F0D9FE284600F0C9
:10E23000C0FE314D2968092918DC74B107EE904AF7
:10E24000F8EEE77A2D482E4A0368013102EB83028B
:10E25000C2ED007A0133296003601420BDE8384024
:10E2600000F0B6BC2146DDE70446E2E70A29254A6C
:10E2700011D1234C2046FFF79DFF234B83ED000A6D
:10E2800063691360A3695360E3699360236AD36091
:10E29000636A1361E1E713460021042906BF07EE14
:10E2A000904AF8EEE77A586801F1010114BF18604E
:10E2B000C2ED047A052903F10403EED11148FFF7FA
:10E2C00079FF114BB3EE047AD3ED007A77EEC77A7B
:10E2D000F4EEC07AF1EE10FABFDD00F0CBFF0B498F
:10E2E00000F073FEB9E700BF94FD3F0264AE071073
:10E2F000BEFD3F02DBFD3F0224AE071028AE071033
:10E300002CAE071010AE07100CAE0710E1FD3F0257
:10E3100008B5044800F094FEBDE808400121024819
:10E3200000F004B854AE071064AE07102DE9F041B8
:10E330000D4604464FF07008103000F0E0F80B4B2B
:10E340006570EDB208FB05F01C60FFF7D6FE0646CF
:10E3500040B10027AF4208FB076003D000F088F807
:10E360000137F7E720466660BDE8F0817CAE071014
:10E3700070B50446002570266378AB4206DD606800
:10E3800006FB050000F0A0F80135F5E700F0D8F82D
:10E39000002300F5FA602370A0602373054B1B78FF
:10E3A0000BB9012070BDFFF7B4FE0028F9D101239D
:10E3B0002370F7E79CAD0710002A08DB43789342EF
:10E3C00005DB4368702000FB023000F05FB8704747
:10E3D000002A08DB4378934205DB4368702000FB8A
:10E3E000023000F055B87047002908DB43788B42B3
:10E3F00005DB4368702000FB013000F057B84FF098
:10E40000FF307047002908DB43788B4205DB436807
:10E41000702000FB013000F04BB800207047002A4C
:10E4200008DB4378934205DB4368702000FB023031
:10E4300000F030B87047282210B500210446303073
:10E4400001F0C5F9002340F2EE226376E3606261D9
:10E450004FF400722376A362C4E91822226AA365EE
:10E46000A266642262620122E361A4F86C2010BDFE
:10E470000B224FF0FF3310B5C0E900238360022365
:10E480000446C362FFF7D7FF204610BD0160704706
:10E490004160704738B504460D4600F06DF82562BE
:10E4A000A5660020BDE8384000F074B8C068704729
:10E4B00038B5044600F060F80020657E6076EDB265
:10E4C00000F068F8284638BD10B5044640680028BA
:10E4D00007DB012180B201F015F80021A08801F0CE
:10E4E00022F8A068002809DB012180B201F00AF8B7
:10E4F00020890021BDE8104001F02EB810BD002198
:10E500000222C0E90012704709B504480068044BB4
:10E5100003441B685B6C029309BD000094AD0710B7
:10E520003000000009B504480068044B03441B6830
:10E530005B68029309BD000094AD07100000000065
:10E5400009B504480068044B03441B681B69029327
:10E5500009BD000094AD07100000000009B5044893
:10E560000068044B03441B685B69029309BD00000B
:10E5700094AD07100000000009B504480068044B82
:10E5800003441B689B6B029309BD000094AD071008
:10E590000000000009B504480068044B03441B68F0
:10E5A000DB6B029309BD000094AD07100000000072
:10E5B00009B504480068044B03441B685B68029378
:10E5C00009BD000094AD07101400000009B504480F
:10E5D0000068044B03441B689B68029309BD00005C
:10E5E00094AD07101400000009B504480068044BFE
:10E5F00003441B68DB68029309BD000094AD07105B
:10E600001400000009B504480068044B03441B686B
:10E610001B69029309BD000094AD071014000000AF
:10E6200009B504480068044B03441B689B6A0293C5
:10E6300009BD000094AD07101400000009B504489E
:10E640000068044B03441B689B6F029309BD0000E4
:10E6500094AD07101400000009B504480068044B8D
:10E6600003441B681B6A029309BD000094AD0710A8
:10E670001000000009B504480068044B03441B68FF
:10E680005B6A029309BD000094AD07101000000002
:10E6900009B504480068044B03441B689B6A029355
:10E6A00009BD000094AD07101000000009B5044832
:10E6B0000068044B03441B68DB6A029309BD000039
:10E6C00094AD07101000000009B504480068044B21
:10E6D00003441B681B6B029309BD000094AD071037
:10E6E0001000000009B504480068044B03441B688F
:10E6F0005B6B029309BD000094AD07101000000091
:10E7000009B504480068044B03441B681B6C029362
:10E7100009BD000094AD07101000000009B50448C1
:10E720000068044B03441B685B69029309BD000049
:10E7300094AD07104C00000009B504480068044B74
:10E7400003441B689B68029309BD000094AD071049
:10E750005000000009B504480068044B03441B68DE
:10E76000DB68029309BD000094AD07105000000063
:10E7700009B504480068044B03441B681B690293F5
:10E7800009BD000094AD07100C00000009B5044855
:10E790000068044B03441B685B69029309BD0000D9
:10E7A00094AD07100C00000009B504480068044B44
:10E7B00003441B68DB69029309BD000094AD071098
:10E7C0001800000009B504480068044B03441B68A6
:10E7D0001B6A029309BD000094AD071018000000E9
:10E7E00009B504480068044B03441B68DB680293C6
:10E7F00009BD000094AD07102400000009B50448CD
:10E800000068044B03441B681B69029309BD0000A8
:10E8100094AD07102400000009B504480068044BBB
:10E8200003441B685B69029309BD000094AD0710A7
:10E830002400000009B504480068044B03441B6829
:10E840009B69029309BD000094AD071024000000ED
:10E8500009B504480068044B03441B68DB69029354
:10E8600009BD000094AD07102400000009B504485C
:10E870000068044B03441B681B6A029309BD000037
:10E8800094AD07102400000009B504480068044B4B
:10E8900003441B689B6A029309BD000094AD0710F6
:10E8A0002400000009B504480068044B03441B68B9
:10E8B0001B6C029309BD000094AD071024000000FA
:10E8C00009B504480068044B03441B681B680293A5
:10E8D00009BD000094AD07103400000009B50448DC
:10E8E0000068044B03441B685B68029309BD000089
:10E8F00094AD07103400000009B504480068044BCB
:10E9000003441B681B69029309BD000094AD071006
:10E910003400000009B504480068044B03441B6838
:10E920005B69029309BD000094AD0710340000003C
:10E9300009B504480068044B03441B689B690293B3
:10E9400009BD000094AD07103400000009B504486B
:10E950000068044B03441B68DB69029309BD000097
:10E9600094AD07103400000009B504480068044B5A
:10E9700003441B681B6A029309BD000094AD071095
:10E980003400000009B504480068044B03441B68C8
:10E990005B68029309BD000094AD071008000000F9
:10E9A00009B504480068044B03441B685B69029383
:10E9B00009BD000094AD07100800000009B5044827
:10E9C0000068044B03441B68D3F88830029309BDE8
:10E9D00094AD07100800000009B504480068044B16
:10E9E00003441B68D3F89430029309BD94AD07101B
:10E9F0000800000009B504480068044B03441B6884
:10EA0000DB6B029309BD000094AD07102C000000E1
:10EA100009B504480068044B03441B685B68029313
:10EA200009BD000094AD07102800000009B5044896
:10EA30000068044B03441B689B68029309BD0000F7
:10EA400094AD07102800000009B504480068044B85
:10EA500003441B68DB68029309BD000094AD0710F6
:10EA60002800000009B504480068044B03441B68F3
:10EA70001B69029309BD000094AD07102800000037
:10EA800009B504480068044B03441B685B690293A2
:10EA900009BD000094AD07102800000009B5044826
:10EAA0000068044B03441B689B69029309BD000086
:10EAB00094AD07102800000009B504480068044B15
:10EAC00003441B68DB69029309BD000094AD071085
:10EAD0002800000009B504480068044B03441B6883
:10EAE0001B6A029309BD000094AD071028000000C6
:10EAF00009B504480068044B03441B681B6B029370
:10EB000009BD000094AD07102800000009B50448B5
:10EB10000068044B03441B685B6B029309BD000053
:10EB200094AD07102800000009B504480068044BA4
:10EB300003441B681B6C029309BD000094AD0710D1
:10EB40002800000009B504480068044B03441B6812
:10EB50005B6C029309BD000094AD07102800000013
:10EB600009B504480068044B03441B681B68029302
:10EB700009BD000094AD07100400000009B5044869
:10EB80000068044B03441B685B68029309BD0000E6
:10EB900094AD07100400000009B504480068044B58
:10EBA00003441B681B6C029309BD000094AD071061
:10EBB0000400000009B504480068044B03441B68C6
:10EBC0005B6C029309BD000094AD071004000000C7
:10EBD0000021FFF7E5BE0000002302480360FFF7B5
:10EBE00093BC00BF80AE0710002240681146FFF7BB
:10EBF00071BF002240681146FFF788BF00224068BD
:10EC0000FFF776BF0022406881F00101FFF754BF93
:10EC1000002340681A461946FFF740BF00234068AA
:10EC20001A461946FFF72CBF002240681146FFF72D
:10EC300019BF002240681146FFF7F8BE00220221EA
:10EC40004068FFF701BF002340681A46FFF7E0BEA7
:10EC50000322024B5A60024A1A60704784AE0710C2
:10EC6000F0FD3F027047F8B5064615460C468F1872
:10EC7000BC4206D0336830469B6814F8011B9847A5
:10EC8000F6E72846F8BD0022007CFFF7E5BC00212E
:10EC9000007CFFF7EFBC0021007CFFF7F9BC0021EE
:10ECA000007CFFF703BD0021007CFFF70DBD10B510
:10ECB00004461421FFF723FA204610BD38B5044658
:10ECC00015464FF47A730022C4E90123094B084624
:10ECD000217423602946FFF713FDBF3008D16B690B
:10ECE000DB0705D56868FFF749FFE868FFF746FFCF
:10ECF000204638BD2CFE3F02704710B5044618214F
:10ED0000FFF7FDF9204610BDF0B5037D0E46062B3A
:10ED10004FF000048DB000F1040712D000F1080597
:10ED200015F8011D0A22304600F059F9AF4204449B
:10ED300019D0002CF4D02E21304600F037F90444CD
:10ED4000EEE72F236A4639460A208DF80040FFF788
:10ED5000E5FC6846FFF7ACF9336802466946304681
:10ED6000DB689847044620460DB0F0BD10B5044658
:10ED7000044B1122002140F8043B00F028FD2046FE
:10ED800010BD00BF54FE3F020346074A10B543F8CA
:10ED9000042B01F1100251F8044B914243F8044B4B
:10EDA000F9D10A781A7010BD54FE3F0210B59DF8D3
:10EDB000084044EA032343EA0242042342EA016191
:10EDC0004160037510BD000007B5064B0360CB78AA
:10EDD00000938B784A780978FFF7E8FF03B05DF875
:10EDE00004FB00BF54FE3F02014B024A1A60704709
:10EDF0008CAE071060FE3F02002340681A46FFF702
:10EE000007BE002202214068FFF71EBE00224068B4
:10EE10001146FFF70BBE002240681146FFF722BEE5
:10EE2000002340681A461946FFF72ABE00234068AF
:10EE30001A461946FFF732BE00214068FFF774BE3C
:10EE400000214068FFF77EBE0022406881F001018A
:10EE5000FFF732BE00224068FFF74ABE002240683A
:10EE60001146FFF753BE002240681146FFF732BE3D
:10EE70002DE9F04395B014460D460746FFF776FF9F
:10EE800000211C220DA8009100F0A1FC4023204687
:10EE90000C9300216B460CAAFFF75CFC044600288B
:10EEA0004BD1024601216868FFF7DCFD0221804654
:10EEB00022466868FFF7D6FD21468146009E002E57
:10EEC0003BD0002939D17368022B03D00A2B11D013
:10EED000F669F4E7B8F1000FFAD0716906A80431B9
:10EEE0003C1D07ADFFF770FF0FCD0FC42B684146E7
:10EEF0002370EDE7B9F1000FEAD0102201A8746980
:10EF000000F065FC062301AD8DF8143004F1080310
:10EF100018342A4618685968083303C2A3421546B4
:10EF2000F7D101A906A83C1D07ADFFF72DFF0FCDB6
:10EF30000FC42B6849462370CAE70098FFF7FCFB13
:10EF4000384615B0BDE8F083024B034A1A60002230
:10EF50005A60704790AE07106CFE3F02F8B5064647
:10EF60000D4600248F18BD420CD0336830469B6894
:10EF700015F8011B9847031E01DB1C44F3E7002C26
:10EF800008BF1C462046F8BD13B50446084659B1D3
:10EF90000191FFF78DF80246204623680199DB684E
:10EFA00002B0BDE81040184702B010BD03689B686E
:10EFB000184738B50D210546FFF7F8FF0A2104462A
:10EFC0002846FFF7F3FF204438BD38B50546FFF764
:10EFD000DBFF04462846FFF7ECFF204438BD002342
:10EFE000012A98BF0A2230B58BB08DF8243009ACC5
:10EFF0000D46B1FBF2F101FB125303F0FF03092BA5
:10F0000094BF30333733DBB2AA4204F8013DEFD965
:10F010002146FFF7B9FF0BB030BD00000022014BC5
:10F020009A60704798AE07104FF41663034AC0E920
:10F030000023B42303810023C3607047FFFF200235
:10F0400008B5FFF7F1FF08BD10B50446B0F90000A0
:10F05000431C07D080B2FFF799FB2046FFF7E4FF7F
:10F06000012010BD0020FCE72DE9F0410D460446CB
:10F070000221284690461F46FFF79AFA022803D03D
:10F0800000263046BDE8F081284600F0FDF906462E
:10F090000028F5D0B4F90030013302D02046FFF744
:10F0A000D3FFBDF918302846E380BDF91C30258018
:10F0B000A4F80280A7802381FFF75AFBE1E710B58F
:10F0C000044608462170FFF76FFB0023204663606B
:10F0D00010BD000002220020044B1A60044B054AB8
:10F0E000C3E900009A60FFF74DBC00BFB4AE071043
:10F0F000A8AE07100000FFFF024B1A68024B1A600F
:10F10000704700BFA0AD0710B8AE0710704741743C
:10F11000704708B5007CFFF7B7FB20EAE07008BD38
:10F1200008B5007CFFF76AFB20EAE07008BD08B56F
:10F13000007CFFF77FFB40EAE07008BD08B5007C6B
:10F14000FFF76AFB40EAE07008BD007CFFF780BB78
:10F1500037B5457C04462DB1207C03B0BDE8304076
:10F16000FFF73EBB007C0191FFF78EFB0028019961
:10F17000F2DC284603B030BD10B504461421FEF77A
:10F18000BEFF204610BD000010B54FF47A73044650
:10F19000084611460022C4E90123044B2074236071
:10F1A00001236374FFF77EFB204610BDC4FE3F02BF
:10F1B000007CFFF75BBB417470477047704708B530
:10F1C0000021007CFFF7B4FB40EAE07008BD08B501
:10F1D0000121007CFFF7ACFB40EAE07008BD08B5F8
:10F1E000007CFFF797FB20EAE07008BD08B5007CC3
:10F1F000FFF782FB20EAE07008BD13B50446007CEF
:10F200000191FFF787FB0028019901DC607C20B1A8
:10F21000207CFFF79BFB20EAE07002B010BD007C71
:10F22000FFF7A2BB10B504461421FEF768FF204685
:10F2300010BD000010B54FF47A7304460846002153
:10F24000C4E90113044B2074236001231146637445
:10F25000FFF736FB204610BDF4FE3F020022007C83
:10F26000FFF73CBB10B504461422002100F0AFFAB2
:10F27000204610BD10B588B003A8FFF7F3FF0C4C73
:10F28000D4E88F1F11F001010FD120460191FEF744
:10F2900038FF019948B103AA0648FFF7CBFF204683
:10F2A000FEF734FF044800F07FFA024808B010BDB2
:10F2B000BCAE0710C0AE071033F63F020022406814
:10F2C0001146FFF7CFBB002240681146FFF702BC92
:10F2D000002240681146FFF719BC00224068FFF782
:10F2E00007BC0022406881F00101FFF7E5BB002365
:10F2F00040681A461946FFF7D1BB002340681A46FA
:10F300001946FFF7BDBB002240681146FFF78EBBD0
:10F31000002202214068FFF797BB002340681A468D
:10F32000FFF776BB0422024B5A60024A1A6070470C
:10F33000D4AE071024FF3F02014B1860704700BF96
:10F34000A4AD071008B50F4B43B1FFF793FF036857
:10F350001B699847002801DD00E000BF0A4B43B15C
:10F3600000F090F903681B699847002801DD00E070
:10F3700000BF064B0BB100F0CBF9054B0BB100F011
:10F38000FDF908BD000000000000000000000000C2
:10F390000000000008B5FFF7D5FFFFF7DFF8014BCD
:10F3A000186008BDF0AE07100548064A08B5121AE5
:10F3B000054900F0FFF9054B054A1A6008BD00BF7A
:10F3C00000B4071004B40710F0FB5F0800B4071086
:10F3D0001E1C279A002307B51A466FF07701009389
:10F3E000FFF7FAFA03B05DF804FB000007B54388A5
:10F3F0000A2B08D0502B0BD1094B1B684BB103B023
:10F400005DF804EB1847FFF7E5FF03B05DF804FB78
:10F4100000231A466FF077010093FFF7DDFAF4E757
:10F42000E0AE0710002110B51148FFF7C3FB114BE8
:10F430001A68114B9A420CBF012200220F4B1A701E
:10F4400001D0FFF7B1FFFFF76DF8044600F0C8F9EF
:10F450000B4B13B1204600E000BF00210848FFF726
:10F46000C9FABDE8104000210648FFF7A7BA00BF5F
:10F47000B1F73F0200B407101E1C279ADCAE07103C
:10F480000000000065F83F021B2837B5044602D98A
:10F49000002003B030BDA0F10F03022B0BD90128CF
:10F4A00021D800F09BF80021007CFFF71BF980F0C9
:10F4B0000100C0B2EDE7114DD5E88F1F11F0010139
:10F4C0000BD128460191FEF71CFE019928B10C488A
:10F4D000FFF7F5FD2846FEF719FE094B1878FFF7F0
:10F4E00071F90028D4D1083C012C05D800F0CAF8E5
:10F4F000007CFFF7BBF9DAE70120CAE7E4AE0710AA
:10F50000E8AE07101B2838B504460D460AD8FF2977
:10F5100008D0FFF7B9FF28B129462046BDE838409A
:10F52000FFF754B838BD38B504460D46FFF75CF810
:10F53000FF2810D0062804D84D2323FA00F0C30773
:10F5400009D42046FFF7A0FF28B129462046BDE890
:10F550003840FFF757B838BD38B504460D46FFF7B9
:10F5600093FFF0B104212046FFF722F8042805D1CB
:10F570002046A9B2BDE83840FFF752B80221204624
:10F58000FFF716F802280CD12046FFF72DF80128C6
:10F5900001D0042805D129462046BDE83840FFF7B0
:10F5A0004DB838BD7047000038B50A4B04460360BB
:10F5B000012309494361202000F0F4F82025606010
:10F5C00005492846A56000F0EDF8C4E9030520468A
:10F5D00038BD00BF1800010058FF3F0230B50E4D86
:10F5E00087B0D5E88F1F11F0010411D12846FEF72E
:10F5F00088FD68B16846FFF7D7FF6A46214607488D
:10F60000FFF75CFB2846FEF781FD054800F0CCF8CB
:10F61000024807B030BD00BFF4AE0710F8AE0710C7
:10F620001DFA3F027047000038B5142504462A46EB
:10F63000002100F0CCF82580402507492846258187
:10F64000258200F0AFF804496060284600F0AAF86F
:10F65000E060204638BD00BF58FF3F02704770474A
:10F6600010B50446FFF7E0FF204610BD10B5044674
:10F67000FFF7DAFF204610BD10B50446FFF7D4FFB0
:10F68000204610BD30B50E4D87B0D5E88F1F11F064
:10F69000010411D12846FEF734FD68B101A8FFF737
:10F6A000DFFF214601AA0748FFF76EFD2846FEF757
:10F6B0002DFD054800F078F8024807B030BD00BFC6
:10F6C0000CAF071018AF07109DFA3F0210B50D4C94
:10F6D00086B0D4E88F3FDB0711D42046FEF711FD3A
:10F6E00068B101A8FFF7C2FF012101AA0648FFF790
:10F6F0004BFD2046FEF70AFD044800F055F802488D
:10F7000006B010BD10AF07102CAF0710D7FA3F029C
:10F7100010B5FFF7DBFF074B044653B1FFF748FD79
:10F7200038B1236820461B699847002801DD00E0B6
:10F7300000BF10BD0000000010B50D4C86B0D4E82D
:10F740008F3FDB0711D42046FEF7DBFC68B101A830
:10F75000FFF792FF022101AA0648FFF715FD204698
:10F76000FEF7D4FC044800F01FF8024806B010BDB4
:10F7700014AF071040AF0710D5FA3F0210B5FFF7DE
:10F78000DBFF074B044653B1FFF712FD38B1236886
:10F7900020461B699847002801DD00E000BF10BD2E
:10F7A00000000000FEF7A9BC002301461A461846D7
:10F7B00000F044B80A44431E914200D1704710B58E
:10F7C00011F8014B914203F8014FF9D110BD0244E9
:10F7D0000346934200D1704703F8011BF9E700008C
:10F7E00038B5104B04461D68AB6BB3B91820FFF752
:10F7F000B7F90246A86320B90B4B42210B48FFF72B
:10F80000CBF90B490B4BC0E900130B4B0021836074
:10F810000B2383810120C2E90401AB6B00221C6130
:10F820005A6138BDA4AD071059FF3F0270FF3F0277
:10F830000E33CDAB34126DE6ECDE05002DE9F84356
:10F84000DFF8BC8006461F460D46D8F800009146FA
:10F8500000F058F8264B1C6834B9264C1C60264B27
:10F8600013B11B68C4F8883063681F2B07DDD8F814
:10F87000000000F049F84FF0FF30BDE8F8835EB3B8
:10F88000D4F8880088B91D4B23B9D8F8000000F0DF
:10F890003AF8F0E74FF48470FFF762F90028F4D0EB
:10F8A0000023C0E94033C4F8880063680122022EB7
:10F8B00040F8239002FA03F200EB8301D0F8003104
:10F8C00043EA0203C0F80031C1F8807002BFD0F8EB
:10F8D00004311343C0F804316368D8F800005A1C9F
:10F8E0000233626044F8235000F00EF80020C4E7B1
:10F8F000E0AF071054AF071000000000D9EF3F023F
:10F9000008AE0710704770477047000039E53F02A6
:10F9100061E53F0265E53F02000000004845595996
:10F9200059592100576520637265617465642061CF
:10F930002070756C736553656E736F72204F626AC9
:10F94000656374202100E299A5202041204865616B
:10F950007274426561742048617070656E656420E0
:10F9600021200042504D3A20004479696E67210001
:10F970000000000000000000BFF03F02B5F03F02B1
:10F98000ABF03F02A1F03F0295F03F0289F03F0249
:10F99000B1F23F02B9F23F027DF03F0275F03F0243
:10F9A0006BF03F0261F03F02E9F23F02000000000D
:10F9B00000000000DDF03F0227F13F02FFF03F02B0
:10F9C000DFF03F0207F13F020FF13F0217F13F0264
:10F9D0001FF13F02000000000000000081F13F0223
:10F9E00071F13F0273F13F0261707000000000008E
:10F9F0000000000071F23F027BF23F0285F23F02FD
:10FA00008FF23F0299F23F02A5F23F02B1F23F02AC
:10FA1000B9F23F02C1F23F02CDF23F02D5F23F02FE
:10FA2000DFF23F02E9F23F0225592D256D2D2564B5
:10FA30005425483A254D3A2553257A00617363745D
:10FA4000696D6500000000000000000085F53F02C0
:10FA5000F1F53F02C9F53F02D5F33F0299F53F02A8
:10FA6000B5F53F02A7F53F02C3F53F0287F53F0218
:10FA70008BF53F02000000000000000035F63F0259
:10FA80009DF63F0273F63F02D5F33F0265F63F0253
:10FA900037F63F0247F63F0297F63F0257F63F021E
:10FAA0002FF63F02000000000000000093F73F0225
:10FAB00089F73F027FF73F0235F73F0273F73F02B6
:10FAC00067F73F02B1F23F02B9F23F025BF73F0234
:10FAD00053F73F0249F73F023FF73F02E9F23F0287
:10FAE000005245454E54206D616C6C6F63207375F8
:10FAF00063636565646564002F746D702F6A656E5D
:10FB00006B696E732D4743432D31302D70697065DD
:10FB10006C696E652D34385F3230323031313234B9
:10FB20005F313630363138303633392F7372632FC8
:10FB30006E65776C69622F6E65776C69622F6C6990
:10FB400062632F7374646C69622F72616E642E63DA
:10FB50000000000089E73F0251F03F02C9F03F0278
:10FB600061F23F02C1F33F0295F43F024DF53F02BF
:08FB700071F53F029DF73F0211
:10FB7800000000022602000001000000B4FE3F025F
:10FB8800A8AD071000000000000000000000000001
:10FB9800000000000000000000000000000000005D
:10FBA800000000000000000000000000000000004D
:10FBB800000000000000000000000000000000003D
:10FBC800000000000000000000000000000000002D
:10FBD800000000000000000000000000000000001D
:08FBE80000000000E4AF07106B
:04FBF0000000000011
:10FFBE000200100000E05F08A8E05F0820E53F02A5
:10FFCE0001000A00FFFFFFFFFFFF00000102030414
:10FFDE0005060708090A0B0C0D0E0F10111213144B
:0EFFEE0015161718191A1B1C1D1E1F203E0089
:04FFFC0078563412ED
:04000005085FE01898
:00000001FF
